:100000000C9450000C946D000C946D000C946D00D9
:100010000C946D000C946D000C946D000C946D00AC
:100020000C946D000C946D000C946D000C946D009C
:100030000C946D000C946D000C946D000C946D008C
:100040000C946D000C946D000C946D000C946D007C
:100050000C946D000C946D000C946D000C946D006C
:100060000C946D000C946D000C946D000C946D005C
:100070000C946D000C946D000C946D000C946D004C
:100080000C946D000C946D000C946D000C946D003C
:100090000C946D000C946D000C946D000C946D002C
:1000A00011241FBECFEFCDBFDFE3DEBF28E2A6E005
:1000B000B8E201C01D92A131B207E1F718E2A0E059
:1000C000B8E2EEE6F5E102C005900D92A630B10768
:1000D000D9F70E94E0050C949B0A0C9400000F9342
:1000E0001F93CF93DF938B01C42F90E1909326044D
:1000F00080680E941D0607C08FEF0E941D06F80150
:1001000081938F01CD2FDFEFDC0FC111F5CF80E19F
:1001100080932504DF91CF911F910F910895CF9384
:10012000DF9300D01F92CDB7DEB7609107287091A2
:1001300008286115710509F4B9C042E088E80E94F9
:100140006F0060910728709108286E5F7F4F42E032
:100150008AE80E946F0060910728709108286C5F00
:100160007F4F42E08CE80E946F00609107287091F9
:1001700008286A5F7F4F42E08EE80E946F0060911E
:10018000072870910828685F7F4F42E080E90E944D
:100190006F006091072870910828665F7F4F42E0EA
:1001A00082E90E946F006091072870910828645FBF
:1001B0007F4F42E084E90E946F00609107287091B0
:1001C0000828625F7F4F42E086E90E946F006091DD
:1001D000072870910828605F7F4F42E088E90E94FD
:1001E0006F0060910728709108286E5E7F4F42E093
:1001F0008AE90E946F0060910728709108286C5E60
:100200007F4F42E08CE90E946F0060910728709157
:1002100008286A5E7F4F42E08EE90E946F0060917D
:10022000072870910828685E7F4F41E081EA0E94AC
:100230006F006091072870910828675E7F4F42E049
:1002400081EE0E946F006091072870910828655E1A
:100250007F4F41E083EE0E946F0043E0BE016F5F7D
:100260007F4F84EE0E946F00E0910728F0910828EC
:1002700099818A81282F2F7030E040E19402200D6F
:10028000311D1124248F358F2B8182958F7090E042
:1002900030E12302800D911D1124868F978FBF01BD
:1002A000605E7F4F41E087EE0E946F002396CDBFD6
:1002B000DEBFDF91CF9108950F931F93CF93DF930C
:1002C000EB018F7790E19093260409C001E0080FBD
:1002D0000E941D0689910E941D06412F802F1FEF4D
:1002E000140F4111F3CF80E180932504DF91CF916A
:1002F0001F910F910895CF93DF9300D0CDB7DEB754
:10030000E0E2F4E080E1818390E29183958386834B
:1003100096E09A95F1F700C0858382E090E00E9414
:10032000C70680930728909308280E948F0084E0D6
:100330008A8341E0BE016E5F7F4F82EF0E945C01C5
:100340008FEF898341E0BE016F5F7F4F84EF0E9492
:100350005C010F900F90DF91CF9108954F925F92C3
:100360006F927F928F929F92AF92BF92CF92DF92C5
:10037000EF92FF92CF93DF9300D01F92CDB7DEB7FD
:1003800043E0BE016F5F7F4F8AEF0E946F00C9801C
:10039000D12CE12CF12CB701A601032E3CE0440F37
:1003A000551F661F771F3A95D1F7302D8A81C82EC9
:1003B000D12CE12CF12CCC0CDD1CEE1CFF1CCC0C48
:1003C000DD1CEE1CFF1CCC0CDD1CEE1CFF1CCC0C41
:1003D000DD1CEE1CFF1CC42AD52AE62AF72A8B81D5
:1003E00082958F70C82AB701A601689412F8759596
:1003F0006795579547951694D1F7E0910728F091A6
:10040000082840805180612C712CD301C201880FD3
:10041000991FAA1FBB1F9A01AB01281B390B4A0B5E
:100420005B0BA281B3810E947F064B015C01072E0A
:100430007BE0B594A794979487947A95D1F7702D23
:10044000D701C601689413F8B595A7959795879538
:100450001694D1F7BC01CD01641975098609970975
:100460009B01AC010E9442069B01AC01012E1CE0E5
:1004700055954795379527951A95D1F7102DA48155
:10048000B5810E947F06DC01CB01072E7EE0B59589
:10049000A795979587957A95D1F7702D880D991D19
:1004A000AA1DBB1D81A392A3A3A3B4A36C017D01CC
:1004B000CC0CDD1CEE1CFF1CCC0CDD1CEE1CFF1C50
:1004C0008C0D9D1DAE1DBF1D80589F4FAF4FBF4F60
:1004D000692F7A2F8B2F992787FD9A952396CDBF69
:1004E000DEBFDF91CF91FF90EF90DF90CF90BF9074
:1004F000AF909F908F907F906F905F904F900895F6
:100500004F925F926F927F928F929F92AF92BF9223
:10051000CF92DF92EF92FF920F931F93CF93DF93CF
:10052000CDB7DEB72797CDBFDEBF43E0BE016F5F1B
:100530007F4F87EF0E946F002981822F90E0A0E01B
:10054000B0E0AC01BD01032E3CE0440F551F661F17
:10055000771F3A95D1F7302D8A8190E0A0E0B0E086
:10056000880F991FAA1FBB1F880F991FAA1FBB1FA7
:10057000880F991FAA1FBB1F880F991FAA1FBB1F97
:10058000482B592B6A2B7B2B8B8182958F708A018C
:100590009B01082B0C831D832E833F83009107282A
:1005A00010910828D80191968D909D90AD90BC90A7
:1005B0009497B594A79497948794BAEF9B1AA1083F
:1005C000B108C501B401959587957795679595957F
:1005D0008795779567959B01AC010E9442062B0198
:1005E0003C019B01AC01012E1BE0559547953795C9
:1005F00027951A95D1F7102DF801A089B1890E948D
:100600007F066B017C01A685B785A50194010E9438
:100610007F06DC01CB01880F991FAA1FBB1FC80EE4
:10062000D91EEA1EFB1ED701C601B595A795979561
:100630008795B595A79597958795C484D5840D2CF6
:10064000000CEE08FF087601DD24CC24C80ED91E6C
:10065000EA1EFB1EA285B385A3019201012E1DE0B7
:1006600055954795379527951A95D1F7102D0E94E6
:100670007F062B013C01689412F875946794579497
:1006800047941694D1F7A085B185A50194010E94E5
:100690007F06DC01CB01B595A79597958795840DCD
:1006A000951DA61DB71D072E72E1B595A7959795C7
:1006B00087957A95D1F7702D9C01AD0130584F4F39
:1006C0005F4FA681B7810E9474064B015C01072E23
:1006D0007FE0B594A794979487947A95D1F7702D7D
:1006E0000B2EBCE0F594E794D794C794BA95D1F754
:1006F000B02D8C819D81AE81BF81B095A0959095E4
:1007000081959F4FAF4FBF4F9C01AD012C193D0903
:100710004E095F09A5E3BCE00E947406805B9C4320
:1007200081149104A104B10409F47AC099235CF006
:10073000660F771F881F991FA50194010E9452061A
:1007400069017A010AC0A50194010E94520669015B
:100750007A01CC0CDD1CEE1CFF1CD8015696ED91E5
:10076000FC915797C701B601689412F89695879542
:10077000779567951694D1F79B01AC010E944206CC
:100780009B01AC01012E1DE05695479537952795A5
:100790001A95D1F7102DDF010E947F064B015C01F5
:1007A000072E7CE0B594A794979487947A95D1F717
:1007B000702DA70196015695479537952795569523
:1007C000479537952795F801A489B5890E947F063A
:1007D000DC01CB01072E7DE0B595A7959795879510
:1007E0007A95D1F7702D880D991DAA1DBB1D6289C0
:1007F0007389AB01770F660B770B840F951FA61FCC
:10080000B71F689413F8B595A79597958795169493
:10081000D1F7BC01CD016C0D7D1D8E1D9F1D03C048
:1008200060E070E0CB012796CDBFDEBFDF91CF91B6
:100830001F910F91FF90EF90DF90CF90BF90AF90FE
:100840009F908F907F906F905F904F9008954F9200
:100850005F926F927F928F929F92AF92BF92CF9250
:10086000DF92EF92FF920F931F93CF93DF9300D00D
:10087000CDB7DEB742E0BE016F5F7F4F8DEF0E94C4
:100880006F00C980D12CE12CF12CFE2CED2CDC2C3E
:10089000CC248A81C82AE0910728F091082881A0F9
:1008A00092A0A3A0B4A02CE2921A21E0A20AB1085F
:1008B0000B2EBEE0CC0CDD1CEE1CFF1CBA95D1F754
:1008C000B02D448C558C052C000C66087708032E3F
:1008D00034E1440C551C661C771C3A95D1F7302D39
:1008E000A68DB78DA50194010E947F06C418D50876
:1008F000E608F708A7019601261B370B480B590B92
:10090000DA01C901905CAF4FBF4F6C017D01BB2381
:1009100034F43FEFC30E3FE7D31EE11CF11C0B2E56
:10092000BFE0F594E794D794C794BA95D1F7B02D6A
:10093000A0A10A2E000CBB0BA50194010E947F060A
:100940002B013C01992334F44FEF440E43E0541E35
:10095000611C711C032E3AE0759467945794479478
:100960003A95D1F7302DA38DB0E0A50194010E94F6
:1009700074064B015C01992334F45FEF850E57E058
:10098000951EA11CB11CD501C401072E7BE0B595B5
:10099000A795979587957A95D1F7702DBC01CD01D4
:1009A00070588F4F9F4FA30192010E9442068B0106
:1009B0009C01992324F401501C4F2F4F3F4FD90124
:1009C000C801072E7AE0B595A795979587957A95F2
:1009D000D1F7702D9C01AD01405E5F4FA18DB28DAE
:1009E0000E947F06AB01BC01505E6F4F7F4FDB0161
:1009F000CA01772324F48150904CAF4FBF4FBC0104
:100A0000CD01052E5EE095958795779567955A956A
:100A1000D1F7502DA70196010E9442066B017C017F
:100A2000DC01CB01FF2024F481509048AF4FBF4F31
:100A3000BC01CD01052E5FE095958795779567956B
:100A40005A95D1F7502D9B01AC010E9442068B01B3
:100A50009C01992324F401581F4F2F4F3F4FA901A8
:100A60009801689416F855954795379527951694EB
:100A7000D1F7A08DB0E00E9474064B015C01992370
:100A80002CF42FE0820E911CA11CB11CD501C401D5
:100A9000689413F8B595A795979587951694D1F70F
:100AA000A7019601281B390B4A0B5B0BDA01C90120
:100AB0001AF480E090E0DC0181309105A10539E174
:100AC000B30724F080E090E0A0E0B9E1AC01BD0103
:100AD000BB2324F44150504F6F4F7F4FCB01BA01DD
:100AE000052E5CE095958795779567955A95D1F792
:100AF000502D613040E9740741E08407910520F0F2
:100B000060E070E981E090E00F900F90DF91CF916D
:100B10001F910F91FF90EF90DF90CF90BF90AF901B
:100B20009F908F907F906F905F904F900895AF92BD
:100B3000BF92CF92DF92EF92FF920F931F93CF93CA
:100B4000DF93CDB7DEB7CF5FD109CDBFDEBF0E9447
:100B5000AE01162F072FF82EE92E0E948002D62E06
:100B6000C72EB82EA92E0E9427049F938F937F93A0
:100B70006F93AF92BF92CF92DF92EF92FF920F935B
:100B80001F938AE395E59F938F938E010F5F1F4F0D
:100B90001F930F930E94E807C8010E943006CDBF43
:100BA000DEBFC150DF4FCDBFDEBFDF91CF911F91C0
:100BB0000F91FF90EF90DF90CF90BF90AF9008958E
:100BC00088ED84BF109261000E94F6050E9408061D
:100BD0000E947B010E9497052FEF88E09DE3215042
:100BE00080409040E1F700C00000F4CF1092E20591
:100BF0008DE890E2809368089093690883E0809381
:100C0000670881E08093210480EC80936608089552
:100C100084E08093E20580E890E080932808909338
:100C2000290880EC80932708E1E4F4E090E19083C8
:100C300090E4908380932608089590E4909324088C
:100C4000809322088091240886FFFCCF80912008A1
:100C500008959091640895FFFCCF809362080895F1
:100C6000CF93DF93EC0101C0E901888181110E94DB
:100C700029069E012F5F3F4F88818111F5CFDF91BB
:100C8000CF910895DB018F939F930E947406BF91CB
:100C9000AF91A29F800D911DA39F900DB29F900DCB
:100CA00011240895A1E21A2EAA1BBB1BFD010DC041
:100CB000AA1FBB1FEE1FFF1FA217B307E407F5070C
:100CC00020F0A21BB30BE40BF50B661F771F881FE8
:100CD000991F1A9469F760957095809590959B017E
:100CE000AC01BD01CF0108950E94B806A59F900DEB
:100CF000B49F900DA49F800D911D11240895B7FFFE
:100D00000C9474060E947406821B930B08952F9214
:100D10003F924F925F926F927F928F929F92AF928B
:100D2000BF92CF92DF92EF92FF920F931F93CF93D8
:100D3000DF93CDB7DEB7CA1BDB0BCDBFDEBF099497
:100D40002A88398848885F846E847D848C849B845B
:100D5000AA84B984C884DF80EE80FD800C811B8169
:100D6000AA81B981CE0FD11DCDBFDEBFED0108959F
:100D7000A29FB001B39FC001A39F700D811D1124DC
:100D8000911DB29F700D811D1124911D08950F9327
:100D90001F93CF93DF938230910510F482E090E0AF
:100DA000E0910F28F091102820E030E0A0E0B0E0C2
:100DB000309719F1408151810281138148175907F9
:100DC000C8F08417950769F4109731F012960C93C8
:100DD000129713961C9327C000930F281093102886
:100DE00022C02115310519F04217530718F49A0152
:100DF000BD01EF01DF01F801DBCF21153105F9F06D
:100E0000281B390B2430310580F48A819B816115C0
:100E1000710521F0FB018283938304C080930F2826
:100E200090931028FE01329644C0FE01E20FF31F9A
:100E30008193919322503109288339833AC02091BC
:100E40000D2830910E28232B41F420910228309157
:100E5000032820930D2830930E28209100283091EC
:100E600001282115310541F42DB73EB740910428E2
:100E700050910528241B350BE0910D28F0910E2888
:100E8000E217F307A0F42E1B3F0B2817390778F061
:100E9000AC014E5F5F4F2417350748F04E0F5F1FC0
:100EA00040930D2850930E288193919302C0E0E067
:100EB000F0E0CF01DF91CF911F910F910895CF9373
:100EC000DF93009709F481C0FC01329712821382EC
:100ED000A0910F28B0911028109781F420813181C2
:100EE000820F931F20910D2830910E282817390763
:100EF00051F5E0930D28F0930E2867C0ED0120E036
:100F000030E0CE17DF0740F44A815B819E01411536
:100F10005105F1F0EA01F5CFC283D38340815181BD
:100F2000840F951FC817D90759F488819981840FB8
:100F3000951F0296808391838A819B81828393830C
:100F40002115310529F4E0930F28F09310283DC0B6
:100F5000E901EA83FB8349915991C40FD51FEC172E
:100F6000FD0761F480819181840F951F0296E9014C
:100F700088839983828193818A839B83E0E0F0E078
:100F800012968D919C911397009719F0FD01DC0149
:100F9000F7CF8D919C9111979D012E5F3F4F820F4E
:100FA000931F20910D2830910E282817390769F4D6
:100FB000309729F410920F281092102802C0128244
:100FC0001382A0930D28B0930E28DF91CF9108953E
:100FD000AEE0B0E0EEEEF7E00C9495060D891E89C8
:100FE00086E08C8309831A838FEF9FE78D839E832E
:100FF000AE01475E5F4F6F89788DCE0101960E94EA
:101000000A08EF81F885E00FF11F10822E96E4E0C8
:101010000C94AE06ABE0B0E0E0E1F8E00C9487069B
:101020006C017B018A01FC0116821782838181FF9A
:10103000CCC1CE0101963C01F6019381F70193FDED
:10104000859193FF81917F01882309F4BAC185328C
:1010500039F493FD859193FF81917F01853229F4C5
:10106000B60190E00E94010AE7CF912C212C312C8F
:10107000FFE1F315D8F08B3279F038F4803279F053
:101080008332A1F4232D20611DC08D3261F08033A5
:1010900069F4232D216016C0832D8260382EE32D44
:1010A000E4603E2E2AC0F32DF8601DC037FC2DC031
:1010B00020ED280F2A3040F08E32B9F436FC81C181
:1010C000232D2064322E19C036FE06C08AE0989E79
:1010D000200D1124922E11C0EAE02E9E200D112425
:1010E000222EF32DF0623F2E08C08C3621F4832D82
:1010F0008068382E02C0883641F4F70193FD85914F
:1011000093FF81917F018111B3CF982F9F7D9554DB
:10111000933028F40C5F1F4F9FE399830DC08336F3
:1011200031F0833771F0833509F059C021C0F801DF
:10113000808189830E5F1F4F88248394912C5301F3
:1011400013C02801F2E04F0E511CF801A080B180BD
:1011500036FE03C0692D70E002C06FEF7FEFC5015E
:101160000E94F6094C018201F32DFF773F2E16C035
:10117000280122E0420E511CF801A080B18036FE09
:1011800003C0692D70E002C06FEF7FEFC5010E94C0
:10119000EB094C01F32DF0683F2E820133FC1BC09C
:1011A000822D90E088169906B0F4B60180E290E0B6
:1011B0000E94010A2A94F4CFF50137FC859137FE8D
:1011C00081915F01B60190E00E94010A21102A94EA
:1011D00021E0821A91088114910471F7E8C08436E5
:1011E00011F0893641F5F80137FE07C06081718141
:1011F000828193810C5F1F4F08C060817181072E2F
:10120000000C880B990B0E5F1F4FF32DFF763F2EBE
:1012100097FF09C090958095709561957F4F8F4F8E
:101220009F4FF0683F2E2AE030E0A3010E943D0A64
:10123000882E861845C0853731F4232D2F7EB22E97
:101240002AE030E025C0932D997FB92E8F36C1F06A
:1012500018F4883579F0B5C0803719F0883721F057
:10126000B0C0E92FE061BE2EB4FE0DC0FB2DF460CE
:10127000BF2E09C034FE0AC0292F2660B22E06C038
:1012800028E030E005C020E130E002C020E132E09B
:10129000F801B7FE07C060817181828193810C5F84
:1012A0001F4F06C06081718180E090E00E5F1F4F8C
:1012B000A3010E943D0A882E8618FB2DFF773F2E42
:1012C00036FE0DC0232D2E7FA22E891458F434FE35
:1012D0000BC032FC09C0832D8E7EA82E05C0B82C11
:1012E000A32C03C0B82C01C0B92CA4FE0FC0FE0172
:1012F000E80DF11D8081803321F49A2D997EA92E6D
:1013000009C0A2FE06C0B394B39404C08A2D8678A7
:1013100009F0B394A3FC11C0A0FE06C0B21488F477
:10132000280C922C9B180EC0B21460F4B60180E217
:1013300090E00E94010AB394F7CFB21418F42B186E
:1013400002C0982C212CA4FE10C0B60180E390E0CE
:101350000E94010AA2FE17C0A1FC03C088E790E02A
:1013600002C088E590E0B6010CC08A2D867859F05D
:10137000A1FE02C08BE201C080E2A7FC8DE2B601B3
:1013800090E00E94010A891438F4B60180E390E0ED
:101390000E94010A9A94F7CF8A94F301E80DF11D97
:1013A0008081B60190E00E94010A8110F5CF2220D1
:1013B00009F442CEB60180E290E00E94010A2A942C
:1013C000F6CFF6018681978102C08FEF9FEF2B96B3
:1013D000E2E10C94A006FC01059061507040011000
:1013E000D8F7809590958E0F9F1F0895FC0161504E
:1013F000704001900110D8F7809590958E0F9F1F37
:1014000008950F931F93CF93DF93FB01238121FD59
:1014100003C08FEF9FEF2CC022FF16C0468157817B
:10142000248135814217530744F4A081B1819D0185
:101430002F5F3F4F208331838C93268137812F5F2D
:101440003F4F2683378314C08B01EC01FB010084DE
:10145000F185E02D0995892BE1F6D80116968D913D
:101460009C911797019616968D939C931797CE0192
:10147000DF91CF911F910F910895FA01AA2728308B
:1014800051F1203181F1E8946F936E7F6E5F7F4F51
:101490008F4F9F4FAF4FB1E03ED0B4E03CD0670FCD
:1014A000781F891F9A1FA11D680F791F8A1F911D20
:1014B000A11D6A0F711D811D911DA11D20D009F470
:1014C00068943F912AE0269F11243019305D3193B2
:1014D000DEF6CF010895462F4770405D4193B3E09B
:1014E0000FD0C9F7F6CF462F4F70405D4A3318F042
:1014F000495D31FD4052419302D0A9F7EACFB4E0F3
:10150000A6959795879577956795BA95C9F70097AA
:101510006105710508959B01AC010A2E069457954B
:10152000479537952795BA95C9F7620F731F841FA2
:0A153000951FA01D0895F894FFCF49
:10153A0054656D70657261747572613A20256C64C8
:10154A002C206369736E69656E69653A20256C752E
:10155A002C2077696C676F746E6F73633A20256C01
:04156A00750D0A00F1
:06156E000000112820001E
:00000001FF
