:100000000C9434000C9451000C9451000C94510049
:100010000C9451000C9451000C9451000C9451001C
:100020000C9451000C9451000C9451000C94F0006D
:100030000C9451000C9451000C9451000C945100FC
:100040000C9451000C9451000C9451000C945100EC
:100050000C9451000C9451000C9451000C945100DC
:100060000C9451000C94510011241FBECFEFD8E026
:10007000DEBFCDBF11E0A0E0B1E0ECECF5E002C0E6
:1000800005900D92A430B107D9F725E0A4E0B1E0C6
:1000900001C01D92AE30B207E1F70E947E020C94BF
:1000A000E4020C94000088B18F7E88B985E08A95BF
:1000B000F1F7000088B1806188B90895882321F0A4
:1000C00088B1886088B9089588B1877F88B9089514
:1000D000882321F088B1806288B9089588B18F7D26
:1000E00088B90895882321F088B1846088B908957B
:1000F00088B18B7F88B908959AB19C6F9AB99BB1EA
:100100009370282F2C7F922B9BB997B1936097B94E
:1001100098B19C7F8370892B88B9089580E00E94F4
:100120005E0080E00E94680080E00E9472000895F6
:100130000E947C0081E00E9468008AE08A95F1F7C5
:1001400000C080E00E94680008950E947C0081E069
:100150000E94720081E00E945E008AE08A95F1F7B9
:1001600000C080E00E945E0080E00E94720008955E
:1001700082E48093B00085E08093B30081E08093B7
:10018000B10084B1886084B90895FC019091C000E9
:1001900099232CF48091C600808381E0089580E04B
:1001A0000895811104C085B18B7F85B9089585B10B
:1001B000846085B908951092C50080E18093C400E1
:1001C00088E18093C10086E08093C20084B184609E
:1001D00084B980E00E94D1008AB182608AB9089512
:1001E0001F920F920FB60F9211242F933F934F93AC
:1001F0005F936F937F938F939F93AF93BF93CF93AF
:10020000DF93EF93FF9380910901882309F437C1AD
:1002100080910C0190910D01181619060CF02FC158
:1002200080910601813009F440C020F0823009F449
:1002300016C142C1C0910701D0910801C25FDE4FD3
:1002400043E050E060E071E0CE010E94D702892BCC
:10025000C9F48B818A31B1F481E0809306018091E9
:10026000070190910801409690930801809307013F
:1002700080910C0190910D01409790930D01809316
:100280000C011AC180910701909108010196909389
:1002900008018093070180910C0190910D01019755
:1002A00090930D0180930C0107C1E0910701F0913B
:1002B0000801E25FFE4F80818F3F09F07CC0809192
:1002C000070190910801019690930801809307011E
:1002D0008091070190910801937090930801809399
:1002E000070180910C0190910D01019790930D01F0
:1002F00080930C014BC080910701909108019C01F3
:100300002F5F3F4F3093080120930701FC01E25F0C
:10031000FE4F8081209107013091080133703093A6
:1003200008012093070120910C0130910D0121500B
:10033000310930930D0120930C0120910701309178
:100340000801A9014F5F5F4F5093080140930701D7
:10035000F901E25FFE4FC081209107013091080151
:100360003370309308012093070120910C013091E4
:100370000D012150310930930D0120930C01803182
:1003800028F40E9498008C2F0E94A500E09107019C
:10039000F0910801E25FFE4F80818F3F09F48CC02D
:1003A000E0910701F0910801E25FFE4F80818E3FEE
:1003B00009F0A1CF81C0E0910701F0910801E25F4F
:1003C000FE4F80818E3F09F077C0809107019091A8
:1003D000080101969093080180930701809107011D
:1003E0009091080193709093080180930701809188
:1003F0000C0190910D01019790930D0180930C01D8
:10040000E0910701F0910801E25FFE4F808190E0EA
:10041000880F991F880F991F9093050180930401FD
:1004200080910701909108010196909308018093B3
:100430000701809107019091080193709093080142
:100440008093070180910C0190910D010197909389
:100450000D0180930C0182E0809306012DC08091F4
:10046000040190910501009731F0019790930501E7
:100470008093040121C081E0809306011DC0109289
:10048000060180910C0190910D0118161906A4F037
:100490001092090110920D0110920C0180910A0135
:1004A00090910B01909308018093070187E00E94CF
:1004B00098008FEF0E94A500FF91EF91DF91CF91FF
:1004C000BF91AF919F918F917F916F915F914F916C
:1004D0003F912F910F900FBE0F901F901895109283
:1004E00080008CE08093810082EE94E090938900FC
:1004F0008093880082E080936F0008950E94DB0063
:100500008CE387B90E948E000E9453000E94B800BD
:100510000E946F02789410920801109207011092C5
:10052000090110920B0110920A0110920D01109214
:100530000C0180910A0190910B01825F9E4F0E94F5
:10054000C5008823D1F080910A0190910B0101969A
:10055000937090930B0180930A01F89481E00AC094
:1005600080910C0190910D01019690930D01809363
:100570000C0180E08111F4CF7894F89481E005C0FB
:10058000C0910C01D0910D0180E08111F9CF7894D8
:10059000C53883E0D80738F081E00E94D10081E0BF
:1005A00080930901C6CF80E00E94D100C2CFFB0139
:1005B000DC0104C08D910190801921F4415050401C
:0C05C000C8F7881B990B0895F894FFCF32
:0405CC005053470041
:00000001FF
