S00C0000554152542E73726563DC
S11300000C9450000C945A000C945A000C945A000E
S11300100C945A000C945A000C945A000C945A00F4
S11300200C945A000C945A000C945A000C945A00E4
S11300300C945A000C945A000C945A000C945A00D4
S11300400C945A000C945A000C945A000C945A00C4
S11300500C945A000C945A000C945A000C945A00B4
S11300600C945A000C945A000C945A000C945A00A4
S11300700C945A000C945A000C945A000C945A0094
S11300800C945A000C945A000C945A000C945A0084
S11300900C945A000C945A000C945A000C945A0074
S11300A011241FBECFEFCDBFDFE3DEBF0E949C0053
S11300B00C94BF000C9400008DE890E280936808D3
S11300C09093690883E08093670881E0809321041A
S11300D080EC809366080895809164088823E4F78F
S11300E08091600808959091640895FFFCCF8093F7
S11300F062080895CF93DF93EC0101C0E901888180
S113010081110E9473009E012F5F3F4F88818111EE
S1130110F5CFDF91CF91089580E28093A1040895F3
S113012080E28093A604089580E28093A504089554
S113013080E28093A704089588ED84BF1092610043
S11301400E945C000E948C0082E891E40E947A0084
S11301500E946C00813329F0843749F0803351F4D4
S113016003C00E949000F0CF0E949400EDCF0E9443
S11301709800EACF89E891E40E947A00E5CFF894E8
S1050180FFCFAB
S1130182546573740D0A004E69657A726F7A756DDF
S113019269616C6520706F6C6563656E69650D0AD3
S10401A20058
S9030000FC
