:100000000C9450000C946D000C946D000C946D00D9
:100010000C946D000C946D000C946D000C94800099
:100020000C946D000C946D000C946D000C946D009C
:100030000C946D000C946D000C946D000C946D008C
:100040000C946D000C946D000C946D000C946D007C
:100050000C946D000C946D000C946D000C946D006C
:100060000C946D000C946D000C946D000C946D005C
:100070000C946D000C946D000C946D000C946D004C
:100080000C946D000C946D000C946D000C946D003C
:100090000C946D000C946D000C946D000C946D002C
:1000A00011241FBECFEFCDBFDFE3DEBF18E2A0E01B
:1000B000B8E2E9E2FBE002C005900D92A030B10782
:1000C000D9F728E2A0E0B8E201C01D92AA30B20739
:1000D000E1F70E94F3000C9473050C940000E0E239
:1000E000F4E088E384838DE38083E0E6F8E080E851
:1000F00090E08087918780EC878380E486830895F1
:100100001F920F920FB60F9211242F933F934F938C
:100110005F936F938F939F93EF93FF9381E080930F
:100120000B0AE8EAF4E0908192959F70892781702C
:10013000908195FD02C052E001C050E0852B909166
:10014000A80496FD02C094E001C090E0582F592BFE
:1001500080E041E024C0282F30E0F901E050F84D64
:100160009081911115C09091032895279423A9F0AF
:1001700090910328642F60959623642F6523962B16
:1001800090930328F901E050F84D94E1908305C065
:10019000F901E050F84D91509083440F8F5F833008
:1001A000D0F2FF91EF919F918F916F915F914F915D
:1001B0003F912F910F900FBE0F901F90189580E7E1
:1001C0008093A204E0EAF4E088E0848B858B868B40
:1001D000E0E0FAE011828FE19EE486A397A381E03C
:1001E000828780830895CF93DF93CDB7DEB7EF97F3
:1001F000CDBFDEBF88ED84BF109261000E946F000A
:100200000E94E1010E94DF00789480E090E00E946B
:10021000AB0480EE9FEF8093042890930528109202
:1002200006281092072810E027C0212F2F71F22EE8
:10023000522F550F550F550F40E0602F812F0E9410
:10024000FA04512F569556955695577064E1600FF4
:10025000412F4295440F407E812F0E94FA044F2D7A
:1002600068E2600F50E0812F0E94FA040F5F01C026
:1002700000E00031D0F21F5F1123D4F7E0E2F4E098
:1002800088E0868380E1868380EA8093620880919B
:10029000640886FFFCCFE0E6F8E080E4848380E138
:1002A0008093250484EA82838091640886FFFCCFD2
:1002B00080E48093640888E08093250410E022C0E5
:1002C000C12ED12CE12CF12C60E4600FA701960126
:1002D000812F0E942E055E2D4D2D3C2D222764E599
:1002E000600F812F0E942E05A6013327222768E682
:1002F000600F812F0E942E050F5F01C000E00031CA
:10030000F8F21F5F1123D4F73AE240E58EEF90E058
:100310003150404080409040D9F700008FE3EAEE32
:10032000FAE4DE01119601900D928A95E1F7E0E280
:10033000F4E088E0868380E1868388EB809362081E
:100340008091640886FFFCCF80E48093640880E19C
:100350008093250490E011C0E1E0F0E0EC0FFD1F78
:10036000E90FF11D8081809362088091640886FF07
:10037000FCCF80E4809364089F5F9F3368F3E0E2E2
:10038000F4E088E085832AE230E54EEF90E02150EA
:10039000304040409040D9F70000868380E186835A
:1003A00089EB809362088091640886FFFCCF80E42B
:1003B00080936408E0E2F4E080E1858388E085834F
:1003C000A3CFCF93DF93CDB7DEB72997CDBFDEBFE5
:1003D000E0E2F4E080E28583A7E8B3E11197F1F76A
:1003E00000C000008683BDE0BA95F1F70000858368
:1003F0002DE02A95F1F7000088E0868380E186836E
:100400008EEA809362088091640886FFFCCFA0E6A4
:10041000B8E080E414968C931497E0E2F4E080E175
:10042000858398E095839683868383EB12968C93DD
:100430008091640886FFFCCFE0E6F8E080E48483E6
:1004400080E18093250481EF82838091640886FF98
:10045000FCCFA0E6B8E080E414968C931497E0E219
:10046000F4E088E08583868380E186838AEC1296B7
:100470008C938091640886FFFCCFE0E6F8E080E48E
:10048000848380E1809325048FE7828380916408D0
:1004900086FFFCCFA0E6B8E080E414968C93149716
:1004A000E0E2F4E088E08583868380E1868382EA67
:1004B00012968C938091640886FFFCCFE0E6F8E00A
:1004C00080E4848380E1809325048FE5828380919A
:1004D000640886FFFCCFA0E6B8E080E414968C9315
:1004E0001497E0E2F4E088E08583868380E18683E8
:1004F00081EA12968C938091640886FFFCCFE0E637
:10050000F8E080E4848380E18093250480E28283A4
:100510008091640886FFFCCFA0E6B8E080E41496E2
:100520008C931497E0E2F4E088E08583868380E191
:10053000868385EB12968C938091640886FFFCCFAE
:10054000E0E6F8E080E4848380E180932504128271
:100550008091640886FFFCCFA0E6B8E080E41496A2
:100560008C931497E0E2F4E088E08583868380E151
:10057000868380EA12968C938091640886FFFCCF74
:10058000E0E6F8E080E4848380E18093250484E65B
:1005900082838091640886FFFCCFA0E6B8E080E407
:1005A00014968C931497E0E2F4E088E085838683C8
:1005B00080E186838BEA12968C938091640886FF93
:1005C000FCCFE0E6F8E080E4848380E180932504BA
:1005D00081E082838091640886FFFCCFA0E6B8E0CA
:1005E00080E414968C931497E0E2F4E088E085832D
:1005F000868380E1868381EB12968C9380916408D8
:1006000086FFFCCFE0E6F8E080E4848380E180931D
:10061000250482E382838091640886FFFCCFA0E6F4
:10062000B8E080E414968C931497E0E2F4E088E05C
:100630008583868380E186838EEB12968C938091EE
:10064000640886FFFCCFE0E6F8E080E4848380E184
:100650008093250485E082838091640886FFFCCF27
:10066000A0E6B8E080E414968C931497E0E2F4E0FE
:1006700088E08583868380E1868386EA12968C9360
:100680008091640886FFFCCFA0E6B8E080E4149671
:100690008C931497E0E2F4E080E1858398E0958301
:1006A00028EC2F8320E8288720EC298796838683EF
:1006B00081EC12968C938091640886FFFCCF80E4D5
:1006C0008093640880E18093250490E011C0E7E006
:1006D000F0E0EC0FFD1FE90FF11D808180936208AF
:1006E0008091640886FFFCCF80E4809364089F5F5C
:1006F000933068F3E0E2F4E088E08583868380E16C
:10070000868387EC809362088091640886FFFCCF23
:10071000E0E6F8E080E4848380E1809325048FE0C4
:1007200082838091640886FFFCCFA0E6B8E080E475
:1007300014968C931497E0E2F4E088E0858390EAC5
:100740009C8395EB9D8395E59E83868380E18683DC
:1007500084EB12968C938091640886FFFCCF80E432
:100760008093640880E18093250490E011C0E4E068
:10077000F0E0EC0FFD1FE90FF11D8081809362080E
:100780008091640886FFFCCF80E4809364089F5FBB
:10079000933068F3E0E2F4E088E08583868380E1CB
:1007A000868386EB809362088091640886FFFCCF85
:1007B000E0E6F8E080E4848380E18093250481E032
:1007C00082838091640886FFFCCFA0E6B8E080E4D5
:1007D00014968C931497E0E2F4E088E0858394EA21
:1007E00099831A821B82868380E1868382EB12962C
:1007F0008C938091640886FFFCCF80E4809364082A
:1008000080E18093250490E011C0E1E0F0E0EC0F7E
:10081000FD1FE90FF11D80818093620880916408BB
:1008200086FFFCCF80E4809364089F5F933068F379
:10083000E0E2F4E088E085833FE79AE1A6E031500A
:100840009040A040E1F700C00000868380E18683ED
:100850008FEA809362088091640886FFFCCF80E471
:1008600080936408E0E2F4E080E1858388E085839A
:10087000BFE72FE432E1B15020403040E1F700C043
:1008800000002996CDBFDEBFDF91CF910895CF93B1
:10089000DF9300D000D0CDB7DEB78B834C83E0E28E
:1008A000F4E088E0868380E1868385E180936208B6
:1008B0008091640886FFFCCF80E48093640880E127
:1008C0008093250490E011C0E3E0F0E0EC0FFD1F01
:1008D000E90FF11D8081809362088091640886FF92
:1008E000FCCF80E4809364089F5F923068F3E0E27D
:1008F000F4E088E0858369832A83868380E18683A8
:1009000085E7809362088091640886FFFCCF80E4CD
:100910008093640880E18093250490E011C0E1E0B9
:10092000F0E0EC0FFD1FE90FF11D8081809362085C
:100930008091640886FFFCCF80E4809364089F5F09
:10094000923068F388E0809325042496CDBFDEBF03
:10095000DF91CF910895CF93DF93C82FD92F2FE741
:100960004FE760E080E00E944704E0E2F4E088E0C6
:10097000868380E186838CE5809362088091640899
:1009800086FFFCCF80E480936408E0E2F4E080E13D
:10099000858388E08583868380E090E40DC0809124
:1009A000640885FFFCCFD09362088091640885FFBE
:1009B000FCCFC0936208C9019C0121503109892BE9
:1009C00071F78091640885FFFCCFE0E6F8E0D28300
:1009D00080E484838091640885FFFCCFC093620823
:1009E0008091640886FFFCCF88E080932504DF9126
:1009F000CF910895CF93DF93C42FD52F2FE74FE7E3
:100A00000E944704E0E2F4E088E0868380E1868388
:100A10008CE5809362088091640886FFFCCF80E4B7
:100A200080936408E0E2F4E080E1858388E08583D8
:100A300086838091640885FFFCCFE0E6F8E0D283EE
:100A4000C2838091640886FFFCCF80E480936408B1
:100A500088E080932504DF91CF910895CF92DF92B3
:100A6000EF92FF9269017A012FE74FE70E94470456
:100A7000E0E2F4E088E0868380E186838CE5809381
:100A800062088091640886FFFCCF80E4809364084C
:100A9000E0E2F4E080E1858388E0858386838091CD
:100AA000640885FFFCCFC092620877276F2D5E2D0A
:100AB0004D2D8091640885FFFCCFE0E6F8E042838D
:100AC0006701EE24FF24C2828091640886FFFCCF78
:100AD00080E48093640888E080932504FF90EF9081
:0A0AE000DF90CF900895F894FFCF47
:100AEA0002030405060708090A0B0C0D0E0F101164
:100AFA0012131517191B1D1F212325272A2D3033E1
:100B0A0036393C3F4245484C5054585C6064686CE6
:0F0B1A007074787D82878C91969BA0A5AAAFB44A
:00000001FF
