:100000000C9450000C9462000C9462000C946200FA
:100010000C9462000C9462000C9462000C946200D8
:100020000C9462000C9462000C9462000C946200C8
:100030000C9462000C9462000C9462000C946200B8
:100040000C9462000C9462000C9462000C946200A8
:100050000C9462000C9462000C9462000C94620098
:100060000C9462000C9462000C9462000C94620088
:100070000C9462000C9462000C9462000C94620078
:100080000C9462000C9462000C9462000C94620068
:100090000C9462000C9464000C94B4000C948700DF
:1000A00011241FBECFEFCDBFDFE3DEBF2AE2A0E009
:1000B000B8E201C01D92A730B207E1F70E944601E5
:1000C0000C948C010C9400001F920F920FB60F92AB
:1000D00011248F939F93EF93FF9380910528E82F2E
:1000E000F0E090916008EA5FF74D90838F5F809316
:1000F0000528809104288F5F80930428FF91EF9159
:100100009F918F910F900FBE0F901F9018951F9287
:100110000F920FB60F9211248F93EF93FF93E4E6A3
:10012000F8E080818064808380910228882391F0A8
:10013000E091032881E08E0F80930328F0E0EA5FCE
:10014000F64D8081809362088091022881508093CF
:10015000022802C01092062AFF91EF918F910F9012
:100160000FBE0F901F9018951F920F920FB60F920F
:1001700011248F93EF93FF9311C0E091032881E046
:100180008E0F80930328F0E0EA5FF64D8081809324
:100190006208809102288150809302288091022871
:1001A000882321F08091640885FDE7CF80910228A3
:1001B000811105C0E5E6F8E080818F7D8083FF91A5
:1001C000EF918F910F900FBE0F901F901895109286
:1001D000012810920328109202281092062A1092E9
:1001E0000528109200281092042886EA90E0809357
:1001F00068089093690883E08093670881E08093A2
:10020000210480EC8093660880E880936508089557
:10021000E091012891E09E0F90930128F0E0EA5FC1
:10022000F64D8083F89481E006C0809102288F5FAC
:100230008093022880E08111F8CF7894E5E6F8E019
:100240008081806280830895CF93DF93EC0101C0A9
:10025000E901888181110E9408019E012F5F3F4FB3
:1002600088818111F5CFDF91CF91089580E280934D
:10027000A104089580E28093A604089580E280930B
:10028000A504089580E28093A704089588ED84BFB3
:10029000109261000E94E7000E94360178948091DC
:1002A0000228811104C08CE193E40E9424018FE4B0
:1002B00093EC0197F1F700C0000080910428882397
:1002C00071F3E091002881E08E0F80930028F0E028
:1002D000EA5FF74D9081F89481E006C08091042890
:1002E00081508093042880E08111F8CF7894913375
:1002F00029F0943749F0903351F403C00E943A0139
:10030000CECF0E943E01CBCF0E944201C8CF81E8F0
:0C03100093E40E942401C3CFF894FFCFB7
:10031C0054657374303030303030303030303030F1
:10032C0030303030303030303030303030303030C1
:10033C0030303030303030303030303030303030B1
:10034C0030303030303030303030303030303030A1
:10035C003030303030303030303030303030303091
:10036C003030303030303030303030303030303081
:10037C0030300D0A004E69657A726F7A756D69615D
:0F038C006C6520706F6C6563656E69650D0A00A6
:00000001FF
