:100000000C9434000C943E000C943E000C943E0082
:100010000C943E000C943E000C943E000C943E0068
:100020000C943E000C943E000C943E000C943E0058
:100030000C943E000C943E000C943E000C943E0048
:100040000C943E000C943E000C943E000C943E0038
:100050000C943E000C943E000C943E000C943E0028
:100060000C943E000C943E0011241FBECFEFD8E04C
:10007000DEBFCDBF0E94F0000C9401010C94000083
:1000800088B18F7E88B985E08A95F1F7000088B144
:10009000806188B90895882321F088B1886088B983
:1000A000089588B1877F88B90895882321F088B1A1
:1000B000826088B9089588B18D7F88B908958823B2
:1000C00021F088B1846088B9089588B18B7F88B9A0
:1000D00008959FEF9AB98BB9089580E00E944B0074
:1000E00080E00E94550080E00E945F0008950E9419
:1000F000690081E00E9455008AE08A95F1F700C00E
:1001000080E00E94550008950E94690081E00E94ED
:100110005F0081E00E944B008AE08A95F1F700C001
:1001200080E00E944B0080E00E945F00089580E420
:100130008093800084E090E0909389008093880011
:1001400089E08093810084B1826084B9089586E05B
:100150000E9477008FE10E94840087E00E94770070
:1001600088EF0E94840088E00E9477008FE10E945F
:10017000840089E00E9477008FE10E9484008AE079
:100180000E9477008FE10E9484008DE00E9477003A
:100190008CE00E9484008CE00E9477008CE00E943A
:1001A00084008BE00E9477008CE00E94840080E055
:1001B0000E9477008CE00E94840081E00E9477001A
:1001C0008CE00E94840082E00E9477008CE00E9414
:1001D000840083E00E9477008CE00E9484000895F0
:1001E0008EE387B90E946D000E9497000E94400034
:1001F00087E00E94770080EC0E9484000E94A700A4
:06020000FFCFF894FFCFD0
:00000001FF
