S010000041524D2D554152542E73726563CB
S1130000882600202D020000290200002902000099
S113001000000000000000000000000000000000DC
S113002000000000000000000000000029020000A1
S11300300000000000000000290200001D02000072
S11300402902000029020000290200002902000000
S113005029020000290200002902000029020000F0
S113006029020000290200002902000029020000E0
S1130070A103000029020000290200002902000057
S113008029020000290200002902000029020000C0
S113009029020000290200002902000029020000B0
S11300A029020000290200002902000029020000A0
S11300B00000000010B5064C2378002B07D1054B37
S11300C0002B02D0044800E000BF0123237010BDC0
S11300D03404002000000000C8070000084B10B5DD
S11300E0002B03D00749084800E000BF0748036815
S11300F0002B00D110BD064B002BFBD09847F9E72D
S11301000000000038040020C8070000C8070000F1
S113011000000000054B02229A829A8A04490A438D
S11301209A82044B1B689B07FBD57047000800406C
S11301302E0500000C080040044B0222FF329A6096
S1130140034A5A608222D2015A807047000C004050
S113015001050100094A02239384094BD362938C5D
S113016004210B439BB29384064B1B681B06FBD5EF
S1130170054A536802210B4353607047000800404E
S1130180B9050A140C08004000400041044B8022C9
S113019052009A60034A5A608022D2015A80704702
S11301A0000C00400007010010B50D4B98470D4BA3
S11301B098470D4B98470D4B98470D4A0D4B1A60C5
S11301C00D4A0E4B53600E48036A1B021B0AC021E2
S11301D009060B430362002393600733136010BDC9
S11301E01501000039010000550100008D010000D7
S11301F0006CDC020000002010E000E07FBB000087
S113020000ED00E0044B1B68002B03D0024A136886
S1130210013B13607047C0465004002010B5014BE9
S1130220984710BD05020000FEE70000F8B5234A18
S1130230234B9A4209D0224B204A03E011681960EB
S1130240043304321F498B42F8D31F4B02E00022CF
S11302501A6004331D4A9342F9D31D4AFF211D4BF2
S11302608B439360FD3990235B001B4AD1501B4A9A
S1130270D3780325AB4302242343D370D3780C27CC
S1130280BB4308263343D370154B987B30229043ED
S1130290202210439873997BB943314399739A7B15
S11302A0AA4322439A730F4A516880230B43536035
S11302B00D4B98470D4B9847FEE7C046C807000012
S11302C000000020340400203404002084060020B0
S11302D000ED00E00000000000700041005000410B
S11302E00048004100400041DD05000051050000C8
S11302F0F0B5DE4657464E464546E0B585B08946DC
S113030016001F000022002300218B468A463F2549
S11303100096019702904946039111E02021491B60
S113032000240134CC4013E000980199121A8B4147
S11303305946604601438B46514621438A46013D56
S1130340002D23DB202149426918E7D401248C4085
S11303500121A9408C4692185B4110001900029EAD
S113036067463E40B146039E2640B0464E46474649
S11303703E4303D00126064332000B000098019946
S11303809942DCD8D0D19042D9D8CDE758465146CD
S113039005B03CBC90469946A246AB46F0BD000071
S11303A0194B1B7EDB071ED4174B1B7E5B070CD53A
S11303B0164A13781449088D1549C854013313702B
S11303C0144A13780133DBB213707047124A13785E
S11303D0591C1170114AD25C0B4B1A85104A1378C0
S11303E0013BDBB213700E4B1B78002B03D0064B82
S11303F01B7EDB07EAD40A4B1B78002BD4D10122E5
S1130400014B1A75D0E7C04600140042590400207D
S11304105C04002058040020570400205C050020E0
S11304205604002070B50C001100020000230800DF
S11304300021084DA8470100220000230020064C9B
S1130440A04700220123121A8B41120C18041043F6
S113045080B270BD89050000F102000010B51C4A8D
S1130460136820210B4313601A4A1B4B5A801A4B02
S11304705B785BB2002BFADB184C194B236010221B
S1130480184996208001184B9847A081C0239B02ED
S11304906360124BDB695B07FBD4144AC3218900F8
S11304A05358FF2083433F380343535080235B0159
S11304B013600A4B04229A751A6802210A431A60CF
S11304C0064BDB699B07FBD4094A0A4B9A6210BDB1
S11304D02004004017400000000C004000140042BB
S11304E004001040006CDC022504000000E100E080
S11304F0C00001D200440041084A1378591C11700D
S1130500074AD05472B6074A13780133DBB213702A
S113051062B60122044B9A757047C0465504002008
S11305205C050020560400200014004210B50400AD
S113053004E0621C2378002B06D0140020780028E5
S1130540F7D0024B9847F4E710BDC046F904000009
S113055010B5084B9847084B984762B60748084BB4
S11305609847084BFA2252001A60064B1B68002B6E
S1130570FBD1F3E7A90100005D0400007C07000043
S11305802D05000050040020F0B5CE464746150462
S11305902D0C2E0080B50704140C3F0C9946030C57
S11305A07E435D43674363437F19340CE4199C46DF
S11305B0A54203D980235B029846C4444B46514369
S11305C043433604360C250C24046544A4195918F5
S11305D0491920000CBC90469946F0BD70B50D4EEB
S11305E00D4D0024AD1BAD1005D0A300F35801340C
S11305F09847A542F9D100F0D5F8084E084D0024DB
S1130600AD1BAD1005D0A300F35801349847A542A3
S1130610F9D170BDB0070000B0070000B0070000BA
S1130620B8070000034B10B5002B02D0024800F0BD
S113063005F810BD000000004D06000010B50100D3
S113064000230022002000F01FF810BD70B5094BF4
S1130650094CE41AA41009D0084AA518AD00ED18F5
S11306602B68013C9847043D002CF9D100F0A4F814
S113067070BDC046C4070000C8070000FFFFFF3F6D
S11306807047C0467047C046F0B54E464546DE4604
S11306905746E0B5364D83B00600286898460F00EB
S11306A09146FFF7EDFF334B1C68A4235B00E05831
S11306B0002852D043681F2B13DC5A1C0192002ED1
S11306C028D1019A02339B0042601F502868FFF72B
S11306D0D9FF002003B03CBC90469946A246AB46E5
S11306E0F0BD254B002B3DD0C820400000E000BFEA
S11306F0002837D0A42200235200A158436001608F
S1130700A0504032835004328350013301930023BC
S1130710002ED6D09A00924682444A4688215446F6
S11307206250C4225200914681444A468739994016
S113073012688B460A4394464A46614611608422F5
S113074041465200A150022EBBD102005C468D32BC
S1130750FF3211680C431460B3E720004D30FF30C2
S1130760E050A7E72868FFF78DFF01204042B1E77A
S113077030040020A00700000000000048692C207D
S1130780746869732069732041524D202620696E74
S113079074657272757074732E2E2E0D0A0000002B
S11307A008000020F8B5C046F8BC08BC9E46704757
S11307B025060000DD000000F8B5C046F8BC08BC02
S10B07C09E467047B5000000DD
S11307C840420F000000000000000000F402002076
S11307D85C030020C40300200000000000000000A7
S11307E800000000000000000000000000000000FD
S11307F800000000000000000000000000000000ED
S113080800000000000000000000000000000000DC
S113081800000000000000000000000000000000CC
S113082800000000000000000000000000000000BC
S113083800000000000000000000000000000000AC
S1130848000000000000000000000000000000009C
S1130858000000000000000000000000000000008C
S1130868000000000000000000000000000000007C
S113087801000000000000000E33CDAB34126DE619
S1130888ECDE05000B000000000000000000000082
S1130898000000000000000000000000000000004C
S11308A8000000000000000000000000000000003C
S11308B8000000000000000000000000000000002C
S11308C8000000000000000000000000000000001C
S1070BF8600600206F
S9030000FC
