:100000000C947A000C9499000C9499000C9499002B
:100010000C9499000C9499000C9499000C949900FC
:100020000C9499000C9499000C9499000C949900EC
:100030000C9499000C9499000C9499000C949900DC
:100040000C9499000C9499000C9499000C949900CC
:100050000C9499000C9499000C9499000C949900BC
:100060000C9499000C9499000C9499000C949900AC
:100070000C9499000C9499000C9499000C9499009C
:100080000C9499000C9499000C9499000C9499008C
:100090000C9499000C9499000C9499000C9499007C
:1000A0000C9499000C9499000C9499000C9499006C
:1000B0000C9499000C9499000C9499000C9499005C
:1000C0000C9499000C9499000C9499000C9499004C
:1000D0000C9499000C94A3000C94EE000C949900DD
:1000E0000C9499000C9499000C9499000C9499002C
:1000F0000C94990011241FBECFEFCDBFDFE7DEBF08
:1001000010E4A0E0B0E4E4E2F8E000E00BBF02C0DD
:1001100007900D92A637B107D9F722E4A6E7B0E41D
:1001200001C01D92A438B207E1F70E9442020C946C
:1001300010040C94000010927F4181E0089581E04A
:1001400080937F4108951F920F920FB60F92112452
:100150000BB60F922F938F939F93EF93FF93209162
:1001600060088091764081112DC080917B40E82FFE
:10017000F0E0E158FF4B208390917A409F5F90938D
:100180007A402A30E1F4882361F0319790819D30E4
:1001900041F4815080937B4080917A4081508093DC
:1001A0007A40E0917B40F0E0E158FF4B108281E023
:1001B0008093764010927A4010927B4003C08F5F0C
:1001C00080937B40FF91EF919F918F912F910F90A2
:1001D0000BBE0F900FBE0F901F9018951F920F929D
:1001E0000FB60F9211240BB60F928F93EF93FF93DC
:1001F000809177408823B1F08091640885FF12C018
:10020000E091784081E08E0F80937840F0E0E058F4
:10021000FE4B80818093620880917740815080936B
:100220007740E6CF80917740811105C080916508C5
:100230008F7D80936508FF91EF918F910F900BBE9A
:100240000F900FBE0F901F9018951092794010924A
:100250007840109277401092814210927B40109229
:100260007C4010927A4080E197E2809368089093F6
:10027000690883E08093670881E08093210480EC23
:100280008093660880E8809365080895E09179403E
:1002900091E09E0F90937940F0E0E058FE4B808310
:1002A000F894809177408F5F809377407894E5E66B
:1002B000F8E080818062808308950F931F93CF932D
:1002C000DF93EC018E01888181110E944601219605
:1002D000F80180818111F6CFDF91CF911F910F91AD
:1002E00008950F931F93CF93DF9300D0CDB7DEB760
:1002F000FB018A01AB0160E070E4808191810E9482
:100300009A03009771F040E050E0BE016F5F7F4FAD
:100310000E945A02F8016083E981FA8181E09081AC
:10032000911180E00F900F90DF91CF911F910F916D
:100330000895CF9340E852E40E947101C82F8111C3
:1003400005C088E490E40E945D010AC0809180426B
:100350008150843128F080E390E40E945D01C0E088
:100360008C2FCF910895CF934EE750E40E947101F6
:10037000C82F811105C088E490E40E945D010AC085
:1003800080917E408150883028F080E390E40E9484
:100390005D01C0E08C2FCF910895CF934DE750E4DD
:1003A0000E947101C82F811105C088E490E40E9469
:1003B0005D0109C080917D40893028F080E390E4A0
:1003C0000E945D01C0E08C2FCF910895CF92DF9203
:1003D000EF92FF920F931F93CF93DF9300D0CDB78F
:1003E000DEB789839A8310E0AE014F5F5F4F63E011
:1003F00070E489819A810E949A037C01892B91F192
:1004000095E0C92E90E4D92E00E010E0F60160815D
:100410007181C7010E949103892BA1F4000F111F64
:10042000000F111FF801EB5FFF4B0280F381E02DFD
:10043000BE016F5F7F4F89819A810995182F8111C5
:10044000D3CF15C00F5F1F4FF4E0CF0ED11C053086
:100450001105E1F6C7010E945D018BE590E40E9461
:100460005D0105C0112319F080E790E4F8CF0F90EB
:100470000F90DF91CF911F910F91FF90EF90DF9040
:10048000CF90089588ED84BF84E2809368000E9435
:100490002501789488E08093210480917640882318
:1004A000E1F3F8941092764078948FE790E40E94FC
:1004B000E601F3CF3F924F925F926F927F928F92BD
:1004C0009F92AF92BF92CF92DF92EF92FF920F93E3
:1004D0001F93CF93DF935C016B017A016115710566
:1004E00019F0FB0180839183E114F10429F0C70125
:1004F0000297839708F0E5C0E5012196F501108188
:10050000812F90E00E948803892B11F05E01F4CFC7
:100510001D3229F42196F501118101E007C01B323B
:1005200021F4E5012296F501118100E0E114F104C6
:1005300009F1F0E1EF16F10429F43FC010E3E114F2
:10054000F10421F128E0E216F10401F154F4E2E0B3
:10055000EE16F10421F5812C912CA12CB0E4BB2ED8
:100560003EC0FAE0EF16F10439F020E1E216F104A2
:10057000B1F430C0103319F1FAE0EF2EF12CACECED
:100580008A2E982CA82CACE0BA2E29C078E0E72E51
:10059000F12C812C912CA12CE0E1BE2E20C060E03A
:1005A00070E080E090E897010F2C000C440B550B95
:1005B0000E94D40349015A0112C0103359F48881B2
:1005C0008F7D883509F0BACF19812296026080E1CB
:1005D000E82EF12C812C912CA12C68E0B62E40E065
:1005E00060E070E0CB0127010F2C000C6608770853
:1005F000FE0150ED352E310E29E0231570F42FEB5E
:10060000210F2A3118F439EC332E06C02FE9210FBF
:100610002A3118F529EA322E310E232D30E02E151D
:100620003F05DCF447FD16C086169706A806B906F6
:1006300070F0A30192010E94C403630D711D811D1E
:10064000911D61307105810520E8920710F04FEF90
:1006500001C041E021961081CBCF202F2170C11421
:10066000D10471F0442329F02197F601C083D1838E
:1006700007C001FF19C02297F601C083D18314C0BF
:1006800047FF12C0222329F060E070E080E090E88C
:1006900004C06FEF7FEF8FEF9FE722E230E02093FF
:1006A00082423093834209C0222381F09095809545
:1006B000709561957F4F8F4F9F4F462F372F282F73
:1006C00012C040E030E020E090E00DC097FFF5CF91
:1006D00082E290E080938242909383426FEF7FEFBB
:1006E0008FEF9FE7EACF642F732F822FDF91CF9197
:1006F0001F910F91FF90EF90DF90CF90BF90AF9040
:100700009F908F907F906F905F904F903F90089553
:1007100091110C94C103803219F089508550C8F7AB
:100720000895FB01DC018D91019080190110D9F32E
:10073000990B0895FA01A191B081009719F41097CF
:10074000E1F0CD01DC01CD010D90002011F4C001DC
:1007500013C0FB012191222319F02015D9F7F3CF03
:10076000FB012191201519F41E92119606C0222337
:10077000C1F70D900020A1F7D001FA01A193B08339
:100780000895992788270895DB018F939F930E94EE
:10079000F603BF91AF91A29F800D911DA39F900D75
:1007A000B29F900D11240895A1E21A2EAA1BBB1B23
:1007B000FD010DC0AA1FBB1FEE1FFF1FA217B3072D
:1007C000E407F50720F0A21BB30BE40BF50B661F43
:1007D000771F881F991F1A9469F760957095809507
:1007E00090959B01AC01BD01CF0108950E940104C9
:1007F000A59F900DB49F900DA49F800D911D112475
:100800000895A29FB001B39FC001A39F700D811DE9
:100810001124911DB29F700D811D1124911D089509
:04082000F894FFCF7A
:10082400202C0020002A409B0024409F0021409956
:10083400011E40B3011940CD012D524153002D44F6
:10084400002D41002D4452414D002D5352414D0085
:10085400417267756D656E74206F7574206F6620C4
:1008640072616E67650D0A00496E76616C69642079
:10087400617267756D656E740D0A00202D20756EAA
:100884006B6E6F776E20636F6D6D616E640D0A0021
:060894004F4B0D0A0000AD
:00000001FF
